S01B00006275696C642F72656C656173652F7A69676265652E73333714
S2140040000810002031700000BDB20000BB3803006D
S214004010BB380300C5B20000CDB20000BB380300B9
S214004020BB380300BB380300BB380300BB380300B3
S214004030D1B20000347C0400BB380300BB38030058
S214004040BB380300BB380300BB380300496B0000D5
S214004050BB380300BB380300BB380300BB38030083
S214004060BB380300BB380300D1B70000BB380300E1
S214004070BB380300BB380300BB380300BB38030063
S214004080BB380300BB380300BB380300BB38030053
S214004090BB380300BB380300BB380300BB38030043
S2140040A0BB380300F9730000DD730000BB38030063
S2140040B0BB380300BB380300BB38030021070200EF
S2140040C07B9303007793030085FE01009193030022
S2140040D07F930300E10602008393030015EB0100C3
S2140040E061070200BB380300BB380300BB3803007F
S2140040F0BB380300BB380300BB380300BB380300E3
S214004100BB380300BB380300BB380300BB380300D2
S214004110BB380300BB380300BB380300BB380300C2
S214004120BB380300BB380300BB380300BB380300B2
S208004130BB38030090
S214004134F0B5114A114C124E00F00105E3695F0711
S21400414413D40DB9334213D103EA00078F4207D1C3
S2140041540B4A1A40002A14BF6FF001000020F0BD7D
S214004164013AEBD16FF00200F9E74FF0FF30F6E7C3
S2140041746FF00100F3E700BF80969800000003503C
S214004184020001000B4B70B5D96911F480310DD1D2
S21400419401244FF48072084E084DF46020462C64C7
S2140041A41A61FFF7C5FF3464EC6070BD6FF0010060
S2140041B4FBE700BF0000035000100350002003502C
S2140041C438B541F6713301220C4C0021E569E363EE
S2140041D40B4B05F48035DA600223606121202361ED
S2140041E4FFF7A6FF10B92120FFF7A2FF0122054B17
S2140041F4DA600DB10023E36338BD00BF000003504E
S214004204001003500020035070B5134C6061E3693E
S2140042145B071ED40E4656F8043B8D18A361AE42C7
S2140042240BD10423002121202361FFF781FF58B915
S214004234BDE870402120FFF77BBF08210846FFF742
S21400424477FF10B10423236170BD56F8043BA361C5
S214004254E5E74FF0FF30F7E7000003502DE9F84399
S214004264154641F67132164B8946DF69DA63012238
S214004274064603F58053DFF8508007F48037DA608B
S21400428455B9284601220F4BDA601FB10022A3F568
S2140042940053DA63BDE8F88306F5005404EA08041C
S2140042A4A41BAC4228BF2C46494622463046FFF79C
S2140042B4ABFF0028E6D12644A1442D1BE0E700BF4F
S2100042C4000003500020035000E0FFFF45
S2140042D02DE9F04F4FF0FD0BC9B09A460DF11B09C2
S2140042E09DF8503108AFCDF80C90CDF808B0019786
S2140042F0059303890446009383790E4690464188C9
S2140043008288407810F02AFF054650B10090A388B6
S214004310002062883A4911F065FA284649B0BDE89F
S214004320F08F99F8000032F044FB38B12846A38895
S2140043306288344911F056FA8D25EEE75A4639461A
S21400434099F8000032F0DDFA8346002851D0529BDF
S2140043501BB1BDF84C3198424BD8002399F8009019
S2140043600793A9F14102012A5FFA8BF123D8384658
S2140043700139254ADFF898C05FFA81FE734513DBE2
S214004380059B04210792C3B907AF18221F489FED6B
S2140043901A7B02FB060420460A460830394684ED9E
S2140043A0027B15F075FF11E010F8011F0133514034
S2140043B00CFB01F2E2E7059B33B123464A4638463A
S2140043C000960EF0F3FDA8E70829DED9B8F1000F35
S2140043D001D088F80090BAF1000F01D0AAF800B01A
S2140043E0529B002B99D05A46184608A915F050FF44
S2140043F093E7012591E700BF0000000000000000E1
S214004400EF25040024260400C59D1C818010002092
S21400441093010001000000002DE9F04F93B0CDE9B4
S2140044200A32DDE91C530E9353EC102BCDE908013C
S214004430104619468DED060B1E9E15F0B3F980B199
S214004440DDE906014FF0FF32C54B15F0D3F940B950
S214004450DDE906014FF0FF326FF4801315F0ACF97A
S21400446070B1DDE908019DED060B0E9B1E96CDE9A9
S2140044701C53DDE90A3213B0BDE8F04F00F088B9EE
S2140044800022DDE90601002315F096F9002800F069
S2140044903381DDE906A303F1004BCBF30A5016F493
S2140044A08063A0F2FF3008BF06250F9314F0A8FE25
S2140044B09BA3D3E9002314F00DFF9BA3D3E90023AD
S2140044C014F052FDCBF31304894644F07F51804626
S2140044D00022A44B504641F4401114F043FD94A32F
S2140044E0D3E9002314F0F6FE02460B464046494642
S2140044F014F03AFD15F088F9044614F081FE8EA3F8
S214004500D3E900238046894614F0E4FE0022964B49
S21400451014F02AFD15F078F989A3D3E9002307469D
S2140045204946404614F0D6FE80463846894614F082
S21400453067FE85A3D3E9002314F0CCFE02460B46A3
S2140045404046494614F00EFD02460B46CDE90C23C4
S21400455014F0C0FEDDE90C23804689461046194655
S21400456014F002FD0022CDE91001804B404649467A
S21400457014F0DAFF00227E4B14F0F6FC02460B46DF
S2140045804046494614F0D0FF00227A4B14F0ECFC6B
S21400459002460B464046494614F0C6FFDDE90C23AA
S2140045A08046894600204FF0804114F0DBFC02462E
S2140045B00B464046494614F0D7FC02460B46DDE95A
S2140045C0100114F0B1FF07F2FF3700226A4B14F017
S2140045D0CBFC00223B0514F07DFE52465B4680462F
S2140045E0894615F007F9002840F08980CDE90C8946
S2140045F004F16303C62B8CBF0527042731051BD5A2
S21400460053A3D3E900235046594615F0E9F800288D
S2140046107FD051A3D3E900235046594615F0CCF875
S214004620002876D00027A542C6BF2C1B04F1FF3514
S21400463000253C4646F480660E9B9F422CBF4FF0FA
S2140046400008A3EB070816F0020903D0002F18BFD6
S2140046504FF000083CB1DDE90C235046594614F0F3
S21400466063FF82468B46DDE906010022002315F033
S214004670A3F810B10BF100439B46DDE9080126F4D0
S2140046800063CDE90183DDE90A324BEC10AB0095FF
S21400469000F07EF802465FB3DDE9091316F0200F3E
S2140046A000F10105089E0CBF65204520B047DDE9F6
S2140046B008010523002205930A23002CCDE90232C7
S2140046C007F1FF374FEAD473B8BF64422A46019316
S2140046D004970A9B009433F0C8FF0246B9F1000F16
S2140046E006D00B9BC41A0B9B1A190E9BA34245D8E7
S2140046F0104613B0BDE8F08FDDE906ABCDE600222C
S214004700404649461A4B14F00FFF013CCDE90C0118
S2140047106EE7002D90D00F9B002B8DD0013D8BE7D0
S214004720FB799F501344D33FB3C8608B288AC63F9B
S21400473061436F63A787D23F71A379094F930A40FD
S2140047401655B5BBB16B0240EF39FAFE422EE63F76
S2140047502D431CEBE2361A3F0000000080842E41F9
S214004760FFFFEF7F0000F83F0000E03F00002C4016
S21400477000002440000018400000F03F2020DDE943
S2140047800913089DA8470134ADE700BF00000000EC
S2140047902DE9F04F5BEC10AB97B0CDE90501DDE9F4
S2140047A02058CDE90723504652465B465946229F7D
S2140047B014F0F8FF70B90323CDE902870193AA4BE2
S2140047C00093DDE90501DDE9072333F080FE17B02D
S2140047D0BDE8F08F4FF0FF326FF480135046594615
S2140047E014F0EAFF28B10423CDE9028701939F4B1A
S2140047F0E6E74FF0FF32504659469D4B14F0FAFF5D
S21400480068B19C4A07F00403002B08BF03229A4BAA
S2140048101CBF13460422CDE902870192D0E750461A
S2140048208DA3D3E90023594614F0E4FF38B98CA3CE
S214004830D3E900235046594614F0BEFF68B1DDE9BF
S2140048400723DDE905014BEC10ABCDE92187209568
S21400485017B0BDE8F04FFFF7DFBD0022002350463B
S214004860594614F0A9FF002800F091805B46524696
S2140048700020002114F076FB012382468B46099324
S21400488017F4806400F08580092D40F285800024AE
S21400489030210EABA5F109020134202C03F8011BD0
S2140048A0A5EB040901D09442F6D15946504614F0BF
S2140048B0ABFF724B054603EBC90393ED007B8DED12
S2140048C00A7B14F09DFC02460B465046594614F0EF
S2140048D049FBDDE90A2314F0FDFC02460B46CDE950
S2140048E00C2314F0B9FF064614F07AFC02460B4679
S2140048F0DDE90C0114F036FB02460B46CDE90C232D
S21400490000225F4B14F076FF002848D00136304670
S21400491014F066FC02460B46DDE90A0114F056FF69
S21400492008B100260135B9F1000F45D1284614F02C
S21400493067FC02460B465046594614F013FB00220D
S2140049404F4B14F039FF10B9E90700D501350A219D
S2140049500EAB1A19202C0AD095FBF1F001FB10556E
S214004960303502F8015B013405460028F2D107F025
S2140049700302012A55D1B8F1000F52D0099A12B994
S21400498017F00C0F01D008F1FF38302240E00990F4
S21400499076E74FF0060988E7A946002485E7002257
S2140049A0DDE90C01364B14F007FF0028BBD10EB131
S2140049B0F007B8D50136B6E70A210EAB1A19202C37
S2140049C00DD0B6FBF1F001FB1063092E03F13003A6
S2140049D009F1FF3904F1010402F8013B11D8302136
S2140049E0A1440EAA202CB2D04C4504F101030AD1F2
S2140049F004F158020DEB02042E2204F8202C1C466B
S214004A00A5E70646DBE7A1541C46EBE71A5501343A
S214004A10444506D2202CF9D1CDE9028701940EAB8D
S214004A20CEE6202CF8D0099B3BB12D2204F158038A
S214004A306B4403F8202C0134EEE77A0704D504F122
S214004A4058032B226B44F4E73B07E5D504F15803E3
S214004A5020226B44EDE700BF0000000065CDCD418D
S214004A600000000065CDCDC1DE430400E243040033
S214004A70FFFFEF7FD5430400DA430400688B040091
S214004A800000E03F0000000070B58EB02C22002130
S214004A9003A815F06DFA64234FF002320893CDE9AF
S214004AA005230B2301218DF834305B4B8DF8101055
S214004AB01D880D4040F0A980084638F095F80A2277
S214004AC0564B574C1A704FF42873ADF812304FF00F
S214004AD0FF332360534B54491B8820460B82534BAD
S214004AE0534A1B68CD828B61524B0D621B884B82EA
S214004AF0514B1B68CB611BF0A9FE20B14FF41B7114
S214004B004E4839F0AFF90521206833F097FF20B101
S214004B1040F27D21494839F0A5F9206814F0DEF905
S214004B20474B2068196834F04CF80C2538F0C4FC64
S214004B306843099038F0C0FC68430DEB0501079008
S214004B40206816F0D7F820B140F295213B4839F09E
S214004B5089F925681EF024FA00220146284634F01A
S214004B60A8F820B140F29721344839F07BF940F29A
S214004B700353344D344E2B80052396F90000AB705A
S214004B807F2801D11BF058FF3378EB7038F094FC87
S214004B9000EB80008000A88038F08EFC0023C00068
S214004BA04FF0FF31E880AB604FF0FF3018A3D3E939
S214004BB0002338F06BF92549206834F033F8206874
S214004BC002A934F04FFC20B14FF434711B4839F081
S214004BD049F9042220680DEB020133F0C7FF0428D0
S214004BE004D040F2D721154839F03CF901A901203C
S214004BF033F0D2FB06F0A6FB01201CF0AFFB2FF033
S214004C00B8FB1CF0D5FB1BF0AFFE0EB070BD00BFAE
S214004C100A0020FF42030000F2570020435F0020F6
S214004C20245000209AA40400F0650020A0A40400EC
S214004C3011CC030098A404009CA404000D7B04007F
S214004C4040630020185000200369002085CC030034
S214004C500348044B834202D0034B03B11847704706
S214004C60386900203869002000000000064B07491C
S214004C70C91A891048BF0131491003D0044B0BB143
S214004C8001481847704700BF38690020386900207F
S214004C900000000010B5064C237843B9FFF7D8FF94
S214004CA0044B13B10448AFF300800123237010BDFA
S214004CB0681600200000000040C8040008B5044B39
S214004CC01BB104490448AFF30080BDE80840CDE7B7
S214004CD0000000006C16002040C80400A3F5803ACF
S214004CE0704700BF154B002B08BF114B9D46FFF7C2
S214004CF0F5FF00218B460F461148124A121A15F08E
S214004D0037F90C4B002B00D098470B4B002B00D0EC
S214004D1098470020002104000D000B4815F06EFC9B
S214004D2015F0FEF8200029002EF0C9FB15F054FC03
S214004D30000008000000000000000000081000202E
S214004D4008100020A85F002065A6010007B5012115
S214004D5020200DF1070200F07BFE50B1012120203B
S214004D600DF107028DF8071000F082FE03B05DF823
S214004D7004FB9DF807100129F8D00122084813F01B
S214004D80E5FF01210DF1070220208DF8071000F045
S214004D906FFE2EF018FB4FF4FA6000F069FDE5E7B1
S214004DA0A8E2030038B500F0CBFF012805D000F0DC
S214004DB0C7FF022801D000F0DBFF064D2B783BB979
S214004DC000F0BEFF0128044602D12EF06FFB2C70C7
S214004DD038BD00BFDE58002070B50C46088800F0CD
S214004DE0B3FD94F844300546834214D004F11C0603
S214004DF030462EF0F7FA84F844502EF0F7FA3221B7
S214004E00A06430462EF0E9FA94F844100248BDE853
S214004E10704013F09BBF70BDD0E2030010B504468F
S214004E20008800F091FDA37884F84400834202BF16
S214004E300123E3702371074B04F11C00C4E9073417
S214004E4000F05CFE224620880349BDE8104000F0D2
S214004E5093BD00BFE3310300D94D000070B5C378A1
S214004E6004460D461646002B32D1C1B11F4813F03A
S214004E706DFFE36CA6600BB1E06D9847E368F61A29
S214004E8063699E4221D2217E19480131C9B221763A
S214004E9013F05CFFA36D13B1217EE06D9847E570BB
S214004EA02EF0A4FA0DB32379FBB9A268238A801AE0
S214004EB083421AD201230F48237113F047FF236D54
S214004EC09BB1E06DBDE87040184701232376E6E706
S214004ED00029E4D1084813F039FF636DE6602571B8
S214004EE0002BDCD0E06D9847D9E770BDEDE20300FB
S214004EF0FEE203002CE3030019E30300F8B51E46A8
S214004F00838804460D4617460BB18680F8BD817827
S214004F1000882EF087F90123E370084BE58027818F
S214004F20A680C4E903340C34204600F0E7FD294689
S214004F302046BDE8F8402EF050BA00BF2F320300DE
S214004F400122014B1A707047A468002010B5017941
S214004F500446B1FA81F1008849092EF0DAF9217980
S214004F606088B1FA81F149092EF0D3F9034B1A682B
S214004F70A24204BF00221A6010BD00BFAC1600207B
S214004F80F8B54379044613B30088164F04F10805B4
S214004F903B6813B1144B1B78DBB1144E3378C3B1A6
S214004FA021792EF0B6F9124B3221A36028463C60D8
S214004FB02EF013FA0C4B1B789BB94FF4FA710D4880
S214004FC033700D4B0360BDE8F8402EF006BA4088FB
S214004FD0DBE70A4813F0BAFE094B32212846A360E5
S214004FE0F1E7F8BDAC160020E0580020A4680020C9
S214004FF04D4F000084160020414F000042E303009E
S214005000814F000038B5104D04462B7823B90F4861
S21400501000F074FD01232B7004F10800E46000F03A
S2140050206DFD21792088B1FA81F149092EF071F9D8
S214005030A37943B121796088B1FA81F1BDE838409F
S21400504049092EF066B938BDDF58002084160020C6
S21400505010B50446E0B10F4813F078FE01236371E3
S214005060A37953B9217920882EF053F9236B7BB1AD
S214005070606B0121BDE8104018472046FFF766FF29
S21400508004F108002EF0AEF92046FFF779FFEDE7B1
S21400509010BD00BF78E3030010B50446F8B1104811
S2140050A013F054FE00236371A3796BB9217920882D
S2140050B0B1FA81F149092EF02CF9236B7BB1606BB4
S2140050C00021BDE8104018472046FFF73FFF04F1D7
S2140050D008002EF087F92046FFF752FFEDE710BDD7
S2140050E083E3030010B5044668B1074813F02EFEAC
S2140050F0637920461BB1BDE81040FFF7CDBFBDE881
S2140051001040FFF7A5BF10BD8FE3030010B50E4C8F
S2140051100E48214613F01AFE82210D4813F016FEA3
S21400512082210220A21E00F0A3FC014630B134F812
S214005130022C0848BDE8104013F008BE0648BDE83B
S214005140104013F003BE00BF765100209EE303001C
S214005150B9E30300C4E3030008E4030038B5124CC7
S21400516082212246022000F073FCA51C014698B15D
S21400517022880E4813F0EAFD2A460D4B03F134014F
S21400518053F8040B8B4242F8040BF9D119889B782C
S214005190118093703623238035F8021C054A064892
S2140051A0BDE8384013F0D2BD7451002013E403006C
S2140051B093E403007651002071E4030010B5044622
S2140051C00146084813F0C2FD012C074805D12EF011
S2140051D086F8BDE8104001F02BB8BDE810402EF070
S2140051E080B800BFCAE40300CC62002070B500247B
S2140051F0184D194E3378A34217DC0024174D184E6D
S2140052003378A34217DC0024164D174E3378A3429A
S21400521017DC00F095FD0128144818D12EF05FF831
S214005220BDE87040124800F09DBD2846FFF7F6FD29
S21400523001346035DEE728462EF037F80134343581
S214005240DEE72846FFF7DEFE01343835DEE72EF0CF
S21400525048F8E5E7C41F0020E5580020A4210020F8
S214005260E6580020941D0020E4580020CC62002060
S214005270BD5100002DE9F04F85B0FFF76FFFBA4B28
S21400528003A803932EF055F8054614F06DFDB74CB1
S214005290C2B21F2A627004D9B54813F057FD00F059
S2140052A0DBFA2946A01C14F0F3FF03A82EF041F801
S2140052B0054614F059FDC2B21F2A84F8212001D9F0
S2140052C0AC48EAE7294604F1220014F0E1FF03A8FF
S2140052D02EF02FF8002504462678002E6FD1DFF832
S2140052E0D092DFF8D0A2DFF8A882FFF77FFF99F808
S2140052F000309AF8002098F800109F4813F026FD1A
S2140053009AF8003098F800509C4F1D4499F80030E9
S2140053103C461D44EDB2012D38BF01253B464FF4F7
S21400532082714FF6FF720136B5421E7059809A8020
S21400533003F10C03F7DC924B90498C48A36000F015
S214005340C5FDE079A26800EB400002EB800000F0AB
S214005350C9FBE2798A4B0132E27100261C46DFF86F
S21400536034B298F80030B34200F3DB8100274FF0E8
S2140053700C0B844A814E9AF8000098F80010B84248
S21400538000F3E08100274FF0700808440BFB00662E
S214005390DFF824A299F80030BB4200F3EF812946DB
S2140053A0764800F00DFC039B6F491A468B4240F08E
S2140053B0F481754805B0BDE8F04F13F0C7BC532E16
S2140053C00FD163784C2B40F0F980A378502B40F037
S2140053D0F58001226D4B1A7003A82DF0AAFF044633
S2140053E07AE729D8412EF7D9423E102EF4D801A3E9
S2140053F053F826F06554000095560000D953000077
S214005400D9530000D9530000D9530000D9530000E7
S214005410EB540000D9530000D9530000A1540000FB
S2140054204B540000D9530000D9530000D953000054
S214005430D953000029560000692ECDD1601C2DF0EE
S21400544085FF80B22DF0BBFFC6E7514B01201978CF
S2140054500023504A994202F1A402BDDD02F8A20CD4
S2140054600133F7E7601C00F0DBFA0646E01C2DF07F
S2140054708FFF01210246304600F020FA602246489F
S214005480464C03785A43A118A6524FF4FA620A8291
S2140054904FF448724A61424A0A65013303709BE73B
S2140054A0601C00F0BDFA0022342780463D4E1146AF
S2140054B000F004FA30783C4D07FB00F325F8038033
S2140054C0EA18E3781046693B18BF012393702DF065
S2140054D0ECFE3378354A03FB07550021156001259D
S2140054E0516015742B44337076E7601C00F098FA10
S2140054F000221146804600F0E1F93422294E2A4F58
S214005500307802FB00F327F80380F918E3780846A2
S214005510693B18BF01238B702DF0C7FE194A002384
S2140055201146906BB0B901EB83113423327802FB3D
S21400553003738B635DB91D4A2B46114652F8040B64
S21400554070B93422307800FB027241F82320337899
S2140055500133C8E70133042B02F14002E1D1E9E749
S2140055600133042BEAD1F2E776510020EC610020EB
S214005570E9E4030000E5030010E50300B016002090
S21400558028170020F81900204DE50300E0580020F9
S214005590E3580020F81A0020E5580020C41F002019
S2140055A01D330300E6580020A4210020CC62002012
S2140055B0E1580020E2580020A8180020601C00F0E7
S2140055C02FFA0746E01C2DF0E3FE0121024638467E
S2140055D000F074F96023754E754C3278A42053435E
S2140055E0E118E7524FF44873724F0B824B613B78D9
S2140055F0DFF8E0C158430CEB00010CF800304FF424
S2140056000070488003200871887102EB420004EBAA
S214005610401432200133DBB201324B718C6081F8CA
S214005620A00032703B70D7E6601C00F0F9F900224B
S2140056304FF038088146604F114600F03FF93B783E
S2140056405E4E08FB03F326F803904FF00109F218AC
S21400565082F80490E3786BB1E01C00F0E1F90022D8
S2140056600446114600F02AF93B7808FB03635C8089
S21400567083F806905248534A037899015354397870
S21400568002EB8314C1EBC10206EBC20262634A1C42
S2140056903A7002E7601C00F0C3F90746E01C00F011
S2140056A0BFF9002206461146384600F007F90022E8
S2140056B038241146304600F001F93F483F4A037847
S2140056C04FF0010E04FB03FC02EB0C0122F80C70F9
S2140056D04FF0000C81F804E081F806C003EB0E01E1
S2140056E0C9B24C43171916539C1C04707024364ECE
S2140056F087F806C0307887F804E04443334FC3EB9E
S214005700C303C1EBC10107EB040C02EBC30338551E
S21400571002EBC1027044CCF80430CCF8082030709C
S2140057205AE636B117F8053C03EB430304EB830453
S214005730BC603946584600F0F9FF01360BF1A40B61
S2140057400C370EE63944481E0BFB00600BFB01616C
S214005750C079019200EB400004EB800410468C6098
S21400576000F0F6FD98F80010194839440BFB01616B
S21400577000F044FD019A01374032FCE516F8053C7E
S214005780314603EB430304EB830408FB07A0B46035
S21400579000F0BAFC01370C36FCE513F8011D0029B1
S2140057A07FF402AE3B2102F8011CFDE5E55800201F
S2140057B0C41F0020E3580020E4580020941D002059
S2140057C0E2580020F8190020E1580020A818002010
S2140057D0881D0020F81A002007B5022101200DF1CF
S2140057E0060200F035F938B9044813F0AFFABDF8F0
S2140057F0060003B05DF804FB0020FAE76AE5030044
S21400580007B50221ADF806000DF10602012000F0F2
S2140058102FF9014610B1034813F098FA03B05DF86B
S21400582004FB00BF8BE5030010B5FFF7D5FF044669
S2140058300146074813F08AFA0121064813F086FA53
S21400584024B9BDE810400120FFF7DABF10BD00BF45
S214005850BBE50300CDE5030008B5044813F076FA6F
S21400586000F016F92DF0AFFD2DF0AAFDE3E50300DC
S21400587038B50446084D094B28462B6000F03EF923
S214005880002C18BF21462846BDE8384008BF4FF414
S21400589096712DF0A2BD00BFA82200206B33030036
S2140058A010B5044C237823B9034838F087FA01234F
S2140058B0237010BDE8580020907E040073B506469D
S2140058C00D461446FFF7ECFF0E4A330AD35C8DF8FC
S2140058D005608DF804307DB1012C04D0032C09D06E
S2140058E00022012101E02246022101A801F058FC15
S2140058F002B070BD0022F7E704212A460DEB010036
S214005900F4E700BF127C040007B5064A030AD35C1E
S2140059108DF8050001A88DF8043001F075FC03B081
S2140059205DF804FB127C040007B5064A030AD35C44
S2140059308DF8050001A88DF8043001F091FC03B045
S2140059405DF804FB127C040007B50A4A030AD35C20
S2140059508DF805008DF8043000230DF1030101A831
S2140059608DF8033001F0A8FC9DF8030003B05DF845
S21400597004FB00BF127C04002DE9F043214C85B0E7
S214005980064688469146FFF78BFF23781BB901F041
S214005990EBFB012323701C4A330AD35C30228DF8BC
S2140059A00C300023194F8DF80D6002FB03F4395DAF
S2140059B0E51901BB01233B554FF0FF3304F11000FE
S2140059C013493844AB606E80C5F80480C5F80C9067
S2140059D008F0D8FB04F10801042239440D4B009569
S2140059E003A801F097FCA96802460B4813F0AEF92D
S2140059F005B0BDE8F0830133102BD6D1074813F06D
S214005A00A5F9F5E7E7580020127C0400D022002014
S214005A107133030083330300F0E503001EE6030042
S214005A2080B10278A2F14103032B0BD840783038BE
S214005A30C0B2082806D8054B134413F8413C40EA88
S214005A40032070474FF6FF70704700BF127C0400BB
S214005A5008B50B4642B101460448006802F09EFDB8
S214005A60BDE808402DF0A5BC022008BD3863002024
S214005A7008B50B4642B101460448006802F016FF1E
S214005A80BDE808402DF095BC022008BD3863002014
S214005A90F0B50026124F8DB0FF2300930A2233463E
S214005AA0386802A92EF01AFAC0B102AB1D4603EB05
S214005AB0800404E055F8043BB34228BF5E1CAC42A9
S214005AC03868E9D9296803F077F80028F2D02D283D
S214005AD0F0D00DB0BDE8F0402DF06BBC0DB0F0BDC1
S214005AE03863002028B1034B0360034B4360002358
S214005AF08360704719000003E0620020FF2307B5AB
S214005B000021044A0093083008F0C0FA03B05DF89C
S214005B1004FB00BFD53303000B4604490246086861
S214005B200349097808B12DF068BC7047D8250020D5
S214005B30EA580020F8B50C4618B122210E4838F075
S214005B4091F9246823685E795F8830463946FFF706
S214005B50E3FF08B98120F8BD8568002DFAD0A36858
S214005B60E27C39463046A84704460028F2D131F098
S214005B708CFC2046EFE700BF46E60300F8B5154666
S214005B800D4A044610680D4A0B46117850B122465D
S214005B902DF033FC034628B100210C27C678B1420D
S214005BA001DB0020F8BD07FB01F45A681019125BF0
S214005BB0AA42F7D00131F2E7D8250020EA580020A3
S214005BC02DE9F74F04460D460026454B454F186015
S214005BD0454B197033010021F85C01360FF0ACF824
S214005BE00C2EF7D10C2D28BF0C254FF0000901957F
S214005BF03C4EDFF800A13D4DDFF8FC80019B4B4595
S214005C0002DC03B0BDE8F08F23784FF0000B337052
S214005C1063887380A388B380A379C6F80880B371BD
S214005C20E379C8F8005088F804304FF00003A768FE
S214005C30A8F80630E3795B450ADC012116F8100B5C
S214005C400FF07AF808F1080809F101090C34D5E7D5
S214005C504FF0000338886B812880FB784FF0000CEB
S214005C602B81BA78C5F804A0002A00920CBF8022C7
S214005C7040222A7379680AF10C02634513DC03EBB1
S214005C8043030AEB830ABB6843B1009A4FF6FF71E1
S214005C90B2FA82F2164B520931F087FB14350BF13B
S214005CA0010B0C37C6E7B1F800E00CF1010C22F846
S214005CB00CEC91F802E00C3202F816EC91F804E0D5
S214005CC00C3102F815EC11F809ECBEF1010F14BF07
S214005CD04FF0100E4FF0110E02F814ECCDE700BF97
S214005CE0D8250020783C0020EA580020DC2B002035
S214005CF0355B0000DC2500205C2E0020014B186080
S214005D00704700BFD425002070B5128805460E46A1
S214005D10FFF734FF044670B102790499806814F0E6
S214005D2079F9064B1B680BB9002070BD3146284632
S214005D3022889847F8E78620F7E700BFD42500209A
S214005D4008B50EF095F8022806D0012806D0044BB8
S214005D5018784000C0B208BD0120FCE70220FAE730
S214005D60E9580020014B1860704700BFD02500207E
S214005D70034B1A781AB901221A700AF07FB87047D6
S214005D80E95800200022064B10B51A70054B1C6817
S214005D902CB1FFF7D5FF2346BDE81040184710BDCD
S214005DA0E9580020D025002037B50446002832D018
S214005DB00EF05EF8022830D1608931F0E3FEE0791B
S214005DC0237A003818BF0120012B637A08BF40F001
S214005DD008000BB140F0100063890BB140F00400DE
S214005DE0257CA188A2790DB1E36873B90C4B0FF03E
S214005DF07FFB217808460FF0F7FB31F0CDF900283D
S214005E0014BF0320002003B030BDCDE90035054B9C
S214005E100FF06EFBEDE70220F5E70120F3E700BF89
S214005E20083304000B02040008B50CF085F901469F
S214005E3030B1044812F08AFFBDE808400CF020BDDF
S214005E4008BD00BFB8E60300034B044A5B7C012193
S214005E5003201370FFF70CBECC620020EB58002026
S214005E6010B50446FFF7F0FFB4F57F4F0BD10024C2
S214005E700A4B1A8813449C70FFF748F92046BDE881
S214005E801040FFF7F5BC4FF601739C4204D1BDE805
S214005E90104003482DF00BBA10BD00BF745100200F
S214005EA0CC62002010B5074C012122460320FFF7E4
S214005EB0CFFD28B92378044A003B18BF012353744A
S214005EC010BD00BFEB580020CC6200200822F8B5B9
S214005ED04C4B32241A7030229A705A7135229A71BD
S214005EE03122DA7139225C70DC7036241A724FF473
S214005EF000121C71444C4264C464444C0122046584
S214005F00434C85188465434CC567C465424C434D75
S214005F104466434CC0F880508466424C80F8482063
S214005F200467414C80F854204467202480F8784069
S214005F3080F8844000F12104C0F888403B4C80F88B
S214005F406020C0F88C403A4C80F86C20C0F8944032
S214005F50384C80F89020C0F8984080F89C20364C4A
S214005F60C0F8B830354BC0F8A440C0F8BC300F2499
S214005F70022380F8A84080F8C030314C314BC0F87E
S214005F80AC40C0F8C430304C304BC0F8B040C0F81D
S214005F90C830092482232E4D80F8B44080F8CC30D7
S214005FA02C7C2C4BC0F8A000C0F8D03044B12A4B53
S214005FB080F8D820C0F8D43005F11103C0F8DC30E2
S214005FC04FF0000CCA798E6802EB42039F00443003
S214005FD006EB830326F807C0586001200C3498703F
S214005FE0DC701318CB71FFF75DFFFFF7A9FE0128E1
S214005FF006D12B7C23B1BDE8F84015482DF057B9E3
S214006000F8BD00BFEC5800202C7C040001002000E6
S2140060102B7C0400020020002A7C040005004200BD
S21400602003002000297C0400040042000700300022
S214006030287C04001200100100404200FDFF2100F1
S214006040167C0400267C04000600420000FF440183
S214006050CC6200207451002001FF1001437B044AEB
S2140060600121137000780E30C0B2FFF701BD00BFEB
S214006070F658002038B504460078054D0E302A46FE
S2140060800121C0B2FFF7E4FC08B92B78637338BD72
S214006090F6580020024B53F820002DF095BA00BFAA
S2140060A0BC2E0020012908B506D0022907D049B920
S2140060B02DF081FA002008BD2DF080FAFAE72DF0C9
S2140060C080FAF7E7024812F041FE0120F3E700BF2E
S2140060D0E5E6030011461A46024B53F82000FFF788
S2140060E0E1BF00BFBC2E0020002310B5044683810C
S2140060F00364A0F844304830FFF700FD014BC4E9C4
S214006100123410BDAF35030038B504460B781A4A72
S21400611043700D4642F82300FFF7E6FF2046FFF7E0
S214006120A9FF4FF4401323610123144A2375A2618B
S214006130134A84F82030E261124A84F82C306262F6
S214006140114A84F83830A26204F10C0222630F4A26
S21400615004F10D036263E363EA79A86802EB420385
S21400616000EB830110344C60094C40F82340094B87
S2140061708B60531CEB7138BDBC2E0020F5580020F8
S21400618008002000A568002000FF300001FF100175
S21400619002010104D560000070B50D46064614469F
S2140061A013460A460146114812F0D0FD25B920468E
S2140061B0BDE87040FFF754BE072D05D12146304696
S2140061C0BDE8704000F078BA062D05D1214630466D
S2140061D0BDE8704000F076B8B5F5817F05D1214660
S2140061E03046BDE87040FFF755BF70BD01E70300BD
S2140061F00148FFF783BD00BF996100004FF4C0134C
S21400620030B5036001230371074B8C688360CA793D
S21400621002EB420304EB83056860044844F823005D
S214006220531CCB7130BD00BF2D7C0400040001015F
S21400623038B50024044D55F8040B08B12DF0D2F9FA
S21400624001340A2CF7D138BDE42E0020022902467C
S21400625008B50ED004D839B910462DF0EEF906E090
S2140062604029F9D0412907D110462DF0DCF900204D
S21400627008BD2DF0ECF9FAE7014812F067FDF6E7E5
S21400628034E7030011461A46024B53F82000FFF786
S214006290DDBF00BFE42E0020426B094B52791A7016
S2140062A082785A70C2789A70826B12B190F83C204D
S2140062B0DA70007804210930014AC0B2FFF7D8BB73
S2140062C0F7580020024B53F820002DF0DCB900BF31
S2140062D0E42E002038B504460078084D09302A46DA
S2140062E00421C0B2FFF7B4FB30B96B78A370AB786B
S2140062F0E370EB7884F83C3038BD00BFF7580020D8
S21400630038B504460078114D09302A460421C0B23B
S214006310FFF79EFBC8B9A3782A78022B0CD004D8C6
S21400632063B920462DF089F901E0FF2B0AD02046FC
S214006330BDE838402DF056B9002AF2D120462DF09F
S21400634072F9F4E7002AF9D1EBE738BDF7580020D8
S214006350F8B504460B78224A0D4642F823004370EF
S214006360FFF7B8FF636B1F4A5C631A632046FFF7AC
S214006370C7FF20462DF036F94FF4801363600123E3
S214006380626BA06B0532E260174A23722261A21C80
S2140063902375A26160B1154A84F82030E261E21CE0
S2140063A06262134A84F82C3004F13C03A262236331
S2140063B00627E979AE6801EB4103002826F823702A
S2140063C006EB83020CBF02230423D37001239370D1
S2140063D0084B043493604B1C5460EB71F8BD00BF4F
S2140063E0E42E0020633603000340300101FF300135
S2140063F002FF10018562000002464179D378084802
S2140064000139042B00EB811008D8012B04D80BB9F6
S2140064102DF009B92DF011B92DF019B9704700BF4C
S214006420F819002002464179D37808480139042B30
S21400643000EB811008D8012B04D80BB92DF0FDB85D
S2140064402DF0F1B82DF003B9704700BFF819002001
S21400645030B587B004464579FFF772FC012822D193
S214006460E2786B1E042A1ED8DFE802F00431031F10
S2140064702800104663784FF480728DF804304FF48D
S2140064808273ADF806300623ADF8083001238DF888
S2140064900B3000238DF80A0001A8CDE903238DF800
S2140064A01430FFF781FC07B030BD0A4A02EB8313B5
S2140064B05B6B5B79181E18BF0120DBE7054A02EB11
S2140064C083135B6B5B79B3FA83F04009D2E7002055
S2140064D0D0E700BFF819002030B587B004464579EC
S2140064E0FFF72EFC012829D1E3786A1E042B25D855
S2140064F0DFE803F00B0B0B032600164B03EB8213AF
S2140065005B6B5B79003B18BF012362788DF80A301D
S2140065108DF804204FF482720123ADF8062006227F
S2140065208DF80B30ADF8082000234FF4807201A8D8
S214006530CDE903238DF81430FFF736FC07B030BDE5
S214006540044B03EB82135B6B5B79B3FA83F35B0953
S214006550DBE700BFF819002010B586B00446FFF749
S214006560EFFB012812D16378094A8DF804304FF406
S2140065708273ADF806304FF48073CDE90223002312
S21400658001A804938DF81430FFF70EFC06B010BD7A
S2140065900800070110B586B00446FFF7D1FB0128B6
S2140065A020D16278104B8DF804204FF4827294F854
S2140065B0A01094F8A10059701870ADF80620049346
S2140065C04FF480720223094901A88DF81430CDE9F2
S2140065D00212FFF7E9FB94F8A130013B18BF012334
S2140065E084F8A13006B010BDFB5800200800050155
S2140065F010B583780446E3B10379022B06D14379BC
S2140066000C48013B00EB83102DF021F8A379022BF8
S21400661002D12046FFF71CFF2046FFF7BBFF0223F0
S2140066206078A4F86C305522BDE8104012212CF09A
S21400663006BF10BDF81900204388094A08211380B8
S2140066408388538083681B8A938090F8A030937168
S2140066508379D37100780430C0B2FFF709BA00BF5F
S214006660F651002038B50D4604460178104812F061
S2140066706DFB4FF602739D420CD163791BB10D4A38
S21400668012789A4201D2012363712046BDE8384051
S214006690FFF7D2BFB5F57F4FF7D120462DF055F85E
S2140066A0A378022B0CBF01220022A3689A70ECE7A5
S2140066B04AE70300E2580020024B53F82000FFF799
S2140066C0D1BF00BF0C2F002038B504460078134D0C
S2140066D004302A460821C0B2FFF7BAF920B1BDE857
S2140066E038400F4812F032BB2B8863806B88E978FD
S2140066F0A380AA88A3681A82AB7984F8A030EB79C5
S214006700A37119B1074B1B788B4205D2064812F0CD
S2140067101DFB23780133637138BD00BFF65100209E
S21400672064E70300E25800208DE70300F8B504464E
S2140067300B78484A0D4642F823004370FFF7C4FF23
S214006740A268454B0226D364444BA11C5365444BB8
S21400675044481365444B04F10C0CC2E916344FF45C
S2140067604013E36001236161E16240491032216316
S2140067702265211D3E4AA1633E49626504F1A002DE
S214006780A061E163E265E01C611D3B4A2062616432
S2140067903A483B492266A21D2374237784F82830A2
S2140067A084F8343084F84030A16484F84C6084F86F
S2140067B0583084F864306062A266E879AA6800EB14
S2140067C0400102EB8107C7F804C04FF0060C2D4FBE
S2140067D042F82170C118C9B201EB410142F821C04C
S2140067E002EB810700217960274F84F88030276705
S2140067F0264F84F89830A767254F264BE767264F25
S21400680084F8746084F88C60C4F89C3004F16C06DC
S214006810831CC4F88470C4F89060204F204EDBB20E
S21400682003EB4303C4F89460C4F8887002EB830655
S2140068307034746008261B4C42F82340C31CDBB23D
S21400684003EB430302EB8304043042F823606160E9
S214006850E871F8BD0C2F0020B7360300F9360300A8
S214006860F165000010003001AD36030001FF300175
S21400687004FF200102FF200105FF300100FF300168
S21400688003FF2101070001084A0021002E7C0400B6
S21400689051001000307C0400317C040055002100BB
S2140068A06F0018001200010400239B6AB3F5804FA6
S2140068B003D21968064A914203D00023037083600E
S2140068C07047012202709A689B694260F7E700BF32
S2140068D007B0CD5E024B034A1A602EF0BEBA00BF68
S2140068E00000002002020FF073B53F4B04461A78F2
S2140068F01AB102221A7002B070BDCDE9002200283B
S214006900F9D001261E7037F0BBF9384D384B1860A9
S21400691016F0FEFF2B785BB902F0F2F940B9354865
S2140069200823354A3549006801F038FE00B92E7054
S214006930334B5A68E260334A9A601A6E22605A6E87
S2140069406260D3F87021A2601B6E5C042CD52E4AC0
S214006950D368D807FCD42D4B1A68531C29D04FF4A3
S214006960801393402A4A13660423294C4FF0804232
S21400697023664FF480632366102323664FF4005388
S2140069806846236601A9226663662CF0F6FE009B25
S2140069902366019B63662B78002BACD0164B1A68D7
S2140069A022665B686366A6E71A4AD368D907FCD4F2
S2140069B0D1E7194B1B78002BD6D1184B5A68144BCD
S2140069C012B94FF480121A66154A526812B94FF47B
S2140069D000121A66134B5B68002BC5D14FF4800279
S2140069E00B4B1A66C0E700BFFE580020FF58002079
S2140069F0442F002038630020482F00200071080034
S214006A000080004455CEAC00000004400463002023
S214006A100090004400000450FD58002000800550FF
S214006A2000C005500000065038B5224D04462B78AD
S214006A30012B02D001232B7038BD0028FCD02CF08F
S214006A40C1FE013009D02CF0BDFE40F20113984281
S214006A5003D0194AD368DB07FCD42268174B1A66A2
S214006A6062685A66A268C3F87021E268D40744BF19
S214006A7000229A60124B1A68013213D1114A12781A
S214006A8082B911494968C80748BF1A600F4A526858
S214006A90D10744BF01221A600D4A5268D20744BF8C
S214006AA002221A6016F03CFF0A4B186837F0E3F82B
S214006AB00023C0E7FE580020000004400080004489
S214006AC004630020FD5800200080055000C00550DB
S214006AD000000650442F002070B50024A36AB3F5CA
S214006AE0804F23D21A68134B9A421FD1124E337826
S214006AF013F0FD0518D14FF480341048FFF7F4FE6C
S214006B00032004F0CBF90E4B0320DC6004F0AAF956
S214006B100C4B1C61AB6ADB69984704460748FFF7D5
S214006B2083FF0CB901233370204670BD4FF4817487
S214006B30FAE700BF07B0CD5EFD580020342F0020D6
S214006B4000A000440090004413B5204B1B7803B906
S214006B50FEE700231E4CCDE900336A4608231D4994
S214006B60206801F01BFDF8B91B4AD2F84031D2F874
S214006B7040211F2B4FF0010311D9203A9340019A70
S214006B801A43019208236A461249206801F08EFED5
S214006B90124B134A1A602EF060F902B010BD9340F3
S214006BA0009A1A430092EDE72D28F1D10A4AD2F84E
S214006BB04031D2F840211F2B4FF0010385BF203A09
S214006BC093409340019398BF0093DBE7FE58002064
S214006BD03863002000710800008000440000002098
S214006BE00B020FF038B50025AB6A0446B3F5804FAC
S214006BF010D21B6BB3F5804F0CD20748FFF774FE1C
S214006C00AB6A20461B6B5B689847BDE83840024875
S214006C10FFF70ABF38BD00BF502F002013B5002471
S214006C20A36A0190B3F5804F13D21B6BB3F5804F68
S214006C300FD20948FFF758FEA36A01211B6B01A873
S214006C409B69984704460448FFF7EEFE204602B0CC
S214006C5010BD4FF48174F9E7502F002070B5002660
S214006C60B36A0446B3F5804F0D4612D21B6BB3F5DC
S214006C70804F0ED20848FFF737FEB36A20461B6BDC
S214006C8029469B69984704460348FFF7CDFE2046F1
S214006C9070BD4FF48174FAE7502F002070B50026BF
S214006CA0B36A0446B3F5804F0D4612D21B6BB3F59C
S214006CB0804F0ED20848FFF717FEB36A20461B6BBC
S214006CC02946DB69984704460348FFF7ADFE204691
S214006CD070BD4FF48174FAE7502F0020F8B50027F6
S214006CE0BB6A0446B3F5804F0D46164611D21B6BA1
S214006CF07BB10948FFF7F8FDBB6A20461B6B32469E
S214006D0029465B6A984704460348FFF78DFE2046EF
S214006D10F8BD4FF40174FAE7502F002070B5002636
S214006D20B36A0446B3F5804F0D4612D21B6BB3F51B
S214006D30804F0ED20848FFF7D7FDB36A20461B6B7C
S214006D4029469B6A984704460348FFF76DFE20468F
S214006D5070BD4FF40174FAE7502F0020F0B50027FD
S214006D60BB6A0446B3F5804F0D461646ADF5337D37
S214006D7020D21B6BB3F5804F1CD21048FFF7B4FD32
S214006D80BB6A20461B6B40F2C1225B6A01A998478A
S214006D90044630B10948FFF747FE20460DF5337D1F
S214006DA0F0BD836A32461B6B2946DB6A01A898470A
S214006DB00446EFE74FF40174EFE700BF502F0020C2
S214006DC010B50024A36AB3F5804F10D21B6BB3F541
S214006DD0804F0CD20748FFF787FDA36A1B6B1B6B1F
S214006DE0984704460348FFF71FFE204610BD0124BF
S214006DF0FBE700BF502F0020F0B58FB0044601A877
S214006E000E461546FFF7EEFE9DF80C30012B12D10C
S214006E10B5F5402F27D8B4F5402F24D86319B3F51D
S214006E20402F20D821462A46304613F031FA002457
S214006E3020460FB0F0BD0027BB6AB3F5804F15D2D1
S214006E401B6BB3F5804F11D20A48FFF74DFDBB6AA6
S214006E502A461B6B314620465B6B9847044605481E
S214006E60FFF7E2FDE4E740F20244E1E740F20114F6
S214006E70DEE700BF502F0020F0B58FB0044601A813
S214006E800E461546FFF7AEFE9DF80C30012B1FD1BF
S214006E90B5F5402F06D8B4F5402F03D86319B3F5DF
S214006EA0402F13D940F2024420460FB0F0BDE258FE
S214006EB0013225D104339D42F9D82A463146204670
S214006EC02CF0B0FC0028EDD00024EDE70023F2E71C
S214006ED00027BB6AB3F5804F15D21B6BB3F5804F06
S214006EE011D20A48FFF700FDBB6A2A461B6B3146E3
S214006EF020469B6B984704460448FFF795FDD3E76A
S214006F0040F20344D0E740F20114CDE7502F0020B2
S214006F1070B58EB0044601A80D46FFF763FE9DF8D7
S214006F200C30012B22D144EA0503C3F30C03002BDB
S214006F3033D1B5F5402F04D940F2024420460EB0B6
S214006F4070BDB4F5402FF7D82544B5F5402FF3D8DB
S214006F50204604F500542CF05EFCAC4202D000281B
S214006F60F6D1E9E70028E7D00024E7E70026B36A71
S214006F70B3F5804F14D21B6BB3F5804F10D20A487E
S214006F80FFF7B2FCB36A29461B6B2046DB6B9847BB
S214006F9004460548FFF748FDD0E740F20444CDE735
S214006FA040F20114CAE700BF502F0020BFF34F8FF6
S214006FB00549064BCA6802F4E0621343CB60BFF390
S214006FC04F8F00BFFDE700BF00ED00E00400FA05AC
S214006FD070B5D0B1C9B10E4E431E013913F8014F3A
S214006FE02046325D02F00302012A11F8012F08BF85
S214006FF004F12000B55C05F00305012D08BF203222
S214007000801A01D1002CE9D170BD0120FCE700BF39
S21400701089A304000348044A0449121A92102CF06B
S2140070204DBC00BF34410000D04200004460002048
S21400703008B5154B83F30A8800F030F8FFF7EAFF2F
S214007040124B13498B4212D30020124B12498B422B
S21400705018D3FDF747FE186850F82240586840F8E5
S2140070602240013298688242F5D30C33EAE70022C8
S214007070F8E71C6844F8220001325C68A242F8D3A4
S2140070800833E4E70022F8E70800002048C80400B8
S21400709054C8040054C8040054C80400124B134AD1
S2140070A070B59A60D3F88820114D42F47002C3F888
S2140070B088206FF0010205F50054226641F2FF7247
S2140070C062660222C3F8D020BFF34F8FBFF36F8FE4
S2140070D04FF44036032003F0E1FE0320E66003F0A1
S2140070E0C1FE2E6170BD00BF00ED00E00040000054
S2140070F000800044014B1860704700BF0C630020FE
S214007100054B1860054B1B6F03F00703032B01D1DB
S21400711034F068BE704700BF146300200080005043
S2140071202DE9F04104464FF001080C250D4E0CB930
S214007130BDE8F08194FAA4F0B0FA80F00F2808FABF
S21400714000F2C8BF103824EA0204CABF05FB00627A
S21400715005FB0062B4325768002FE8D09168C0B2D1
S214007160B847E4E7602F002008B50C4836F026FE46
S214007170192003F085FE28B1192003F08FFE192090
S21400718003F070FE1A2003F07BFE28B11A2003F0ED
S21400719085FE1A2003F066FE002008BD907E0400DF
S2140071A02DE9F0410E461746054618B30F2923D899
S2140071B00378DBB1013BDBB2022B19D8104AD35C53
S2140071C06A78D340DB0717D50E4BD3F81043ACB91B
S2140071D036F056FD80463A462846314602F0BEFB5B
S2140071E0404636F048FD2046BDE8F0817F23E7E7BD
S2140071F00023E5E72224F6E72124F4E70224F2E759
S214007200847C040000C0035010B5044610B3037815
S214007210E3B1013BDBB2022B1AD8104AD35C62788A
S214007220D340DB0718D536F02BFD01226178237892
S2140072308A4030214B4341F2100103F1A04303F58D
S21400724070335A5036F017FD002010BD7F23E6E756
S2140072500023E4E72220F8E72120F6E7847C0400F8
S21400726010B5044610B30378E3B1013BDBB2022B42
S2140072701AD8104AD35C6278D340DB0718D536F0AC
S214007280FFFC0122617823788A4030214B4342F28A
S214007290100103F1A04303F570335A5036F0EBFCAF
S2140072A0002010BD7F23E6E70023E4E72220F8E76E
S2140072B02120F6E7847C040038B50D46044618B352
S2140072C011B30378E3B1013BDBB2022B1AD8104AA4
S2140072D0D35C6278D340DB0718D536F0D1FC302279
S2140072E02378534303F1A04303F570335B69627858
S2140072F0D34003F001032B7036F0BDFC002038BDF0
S2140073007F23E6E70023E4E72220F8E72120F6E7DC
S214007310847C04002DE9F0410D4616469846044646
S21400732000284FD000294DD00178002940D04B1EB0
S214007330DBB2022B3ED8254AD25C6378DA40D2070D
S21400734001D4FF2940D1022E01D9042E3CD136F0BB
S21400735097FC23780746FF2B05D03246204629683F
S21400736002F042FB28602B68013309D12378FF2BFB
S21400737006D1174B6078D3F824142CF0DEFF286073
S21400738029684B1C18D00C23124A03FB0122069BCB
S214007390C2F8048093602378FF2B04D001230E4AA2
S2140073A08B40C2F82434384636F065FC002007E0EF
S2140073B07F22C2E70022C0E7384636F05CFC2D206C
S2140073C0BDE8F0812220FBE72120F9E7847C040059
S2140073D000C00350602F002000D0035008B502F014
S2140073E0B3FA044B00F05530C3F82004BDE808405B
S2140073F0FFF796BE00E0035008B502F0A5FA044B6E
S21400740000F0AA30C3F82004BDE80840FFF788BEA5
S21400741000E003502DE9F04F144605460E469B4605
S214007420C36B87B001225B6902A960689847EB6B63
S21400743001225B6903A93046984702A82CF03DFE5E
S214007440074648B10023A37563754FF0FF33A3606A
S214007450002007B0BDE8F08F03A82CF03BFE012308
S214007460A375237E04EBC303DE611F846368B34207
S2140074700ED1206003A82CF04FFE4FF0FF3320758E
S214007480A360237D043B022B26D80023A375DFE7E9
S21400749023681A1A53425341A37503A82CF03CFEE6
S2140074A0237D834218BFA77503A82CF017FE074656
S2140074B002A82CF013FE874218BF002303A818BFAB
S2140074C0A3752CF013FE074602A82CF00FFE874289
S2140074D01CBF0023A375D4E703A82CF0FFFD80B1E2
S2140074E0EB6B022230465B6904A9984704A82CF08F
S2140074F004FE0346207D032839D8DFE800F038383C
S214007500040903A8F3E7CC22237E04EBC3031A8402
S21400751001F06EFC109B187003A8277E2CF0D2FD9D
S21400752004EBC70787F82200237E03A804EBC303F7
S214007530B3F8209093F822702CF0D0FD804603A874
S2140075402CF0D4FD8246B8F1000F15D0EB6B02226A
S21400755030465B6904A9984704A82CF093FD607533
S214007560637D6BB90023A3754FF0000838E0227ED8
S21400757004EBC2021384CBE703A82CF06EFDEEE703
S21400758094F81680B8F1000FEED0B9F1000F09D1CB
S214007590DFB10123E375637E002B4FD1012F42D16B
S2140075A0677614E06B6C06EB0A015A4286EA010025
S2140075B010421CBF0022A2755A1E0A409B1A99450B
S2140075C0D0D8A37D002BE3D1CEE7E37D43B94FF0BF
S2140075D000084B465246314628462CF0B9FAA060C1
S2140075E0A27D12B123694B4423611A49237E097890
S2140075F099422AD901332376BBF1000F27D032B344
S214007600E37D23B3B8F1000F21D1032F1FD0A1686B
S2140076104B1C1CD0109B2246009328460123FFF7E4
S214007620F9FEA07513E095F8343063B9EB6A0133C0
S214007630CFD1032FCDD10123A376C8E7012FCFD01A
S214007640032FC4D1F7E79846C3E70023A375A07DB0
S214007650FFE600BFA87C04002DE9F04F0E469846D2
S21400766000238BB004464FF0FF31104617468DF8C6
S214007670133001F0A7FBB6F5801F20D2314605AACD
S21400768004F108002CF06BFC451C014603D1237C5A
S214007690BBB92D2010E0384601F094FB0122394694
S2140076A020460DF113032CF0A5FA0028EFD09DF824
S2140076B0133088F8003000200BB0BDE8F08FB01C07
S2140076C0E5D1E56A691C36D12046616A2CF086F958
S2140076D00546B31C18BF0123DFF8CC900193636AFC
S2140076E0626C0293236805A902FB053AE36B052248
S2140076F05B695046984705A82CF07AFD2CF09DFD56
S21400770050462CF0A5FD4FF0000B824601464B1C60
S21400771005D0636C81EA0A025B42134211D0294607
S21400772020462CF05BF9029BAB422CD0BBF1000F3D
S2140077302CD10546D3E72368ED1A636CB5FBF3F549
S214007740C7E7484601F03EFB0DF1130349462046C5
S214007750019A2CF04FFA034690B1B21C03D0D9F828
S2140077600020B2420CD19DF8132003930D4B88F8ED
S214007770002049461A68384612F08AFD039B9B464D
S214007780D9F80810C3E7BBF1000F82D0B6F5801F0A
S21400779091D2314698F800307A6804F1080001F07A
S2140077A03FFA88E7A47C04003C3700202DE9F3412B
S2140077B00446174698460E46184D816AE36A8B4281
S2140077C001D04B1C02D102B0BDE8F081284601F082
S2140077D0F9FA0122294620460DF107032CF00AFA91
S2140077E038B14346294620469DF80720B84700286A
S2140077F0E9D0A9684A1C04D1696820462CF07BF9B8
S2140078000146012EDAD16B6881EA0302636C5B42A3
S2140078101A4218BF4FF0FF31D0E700BF10370020E4
S2140078202DE9F04F4FF0FF334FF6FF720025044668
S21400783000F10806C0E909238BB0C3620562056340
S214007840304688462CF05CFB20462CF097F860BB50
S214007850204641462CF012F920462CF08FF860BBEB
S2140078605E200BB0BDE8F08F2368E26B606C576952
S21400787000FB0530052205A9B84705A82CF0B8FC82
S214007880012807460CD1294620462CF0C8F8012FBF
S214007890024600D10132294620462CF08EF803E03D
S2140078A02CF0D0FC0028EED10135E3699D42DBD3F5
S2140078B020462CF063F80028CAD000254FF0FF3988
S2140078C04FF6FF73CA46A846C4E90853E3699845CD
S2140078D00AD3A5EB0905012D2CD84FF6FF72636A73
S2140078E093423CD16720BCE72368E26B606C576923
S2140078F000FB0830052205A9B84705A82CF078FC3F
S214007900834605A82CF04BFC074658462CF095FC01
S21400791068B1574538BFC4F82480B94528BFB94672
S214007920BD4238BF3D46BA46236A0133236208F19A
S2140079300108CBE74FF6FF7300256362E3699D42BB
S214007940CBD2676C2068E36B052207FB05005B69FA
S21400795005A9984705A82CF022FC0135EEE7E26B56
S214007960676C2068694607FB030055690522A8472F
S21400797068462CF014FC626A2368606C4B4D00FB72
S21400798002302CF065FC4FF0FF33A062E3622A461B
S2140079906FF00101204605ABFFF75EFE002846D1DA
S2140079A0AD6829462046E5622BF0C4FF206320B967
S2140079B02046E16A2CF09FF8E062294620462CF02B
S2140079C09AF80546A36A9D4233D120462BF085FFE0
S2140079D000278046B946E36999453CD3B84559D94E
S2140079E02046616A2BF0FAFF0026054604F1400A9D
S2140079F0B74212D8626C2368694602FB0539E36B0E
S214007A0005225B694846984768462CF0C8FB5346F3
S214007A1002464946E06B2CF01DFC294620462BF01A
S214007A20DDFF0136B0450546E2D1642019E7A56AB8
S214007A30B7E7294620462BF07DFF236B29460344F3
S214007A400746236320462CF056F80546002FB9D18A
S214007A50C4E90B07B6E7636C2568052203FB0955E6
S214007A60E36B05A95B692846984705A82CF0C0FB80
S214007A702CF0E3FB58B128462CF0EAFB01462046E2
S214007A802BF058FF636C143B984208BF013709F18E
S214007A900109A0E730462CF033FA002320461946A9
S214007AA0034AFFF783FE0020DBE600BF68370020AE
S214007AB0E33B03002DE9F041036B9046826B0768B9
S214007AC09A4288BF8363426C436A90B002FB037796
S214007AD0C36B0E46052201A95B69044638469847E3
S214007AE001A82CF085FB01280146307057D0656C44
S214007AF0E26B2368606AD2F814C005FB00300522EA
S214007B0006A9E04706A82CF073FB01284FF00005F5
S214007B1023D0D4E90A3201219342CDE90B458DF8F2
S214007B2034800E958DF83C102AD1194620462BF04D
S214007B30E2FF236B626C14339B1AE06223630C9B98
S214007B4053B99DF83C303BB1626A616C2368E06BC8
S214007B5001FB02312CF004FB0C9DE36B05225B69F4
S214007B6001A93846984701A82CF042FB30702846F9
S214007B70236BA26B9A4288BFA36310B0BDE8F08166
S214007B80237C33B91C490BAA04F1080001F096F8CF
S214007B90D5E72046194A0BABFFF708FECFE7237C54
S214007BA023BB2246164904F1080001F087F8616AF3
S214007BB020462BF034FF616A421C20462BF0FDFE67
S214007BC0054620B9236B626C1344143B236320469E
S214007BD0A16A2BF090FF2368A062C01A636CB0FB0A
S214007BE0F3F0606220462BF0C9FFB6E7002320467C
S214007BF0044AFFF7DBFDDAE759830000D582000070
S214007C007D3C0300193C030073B50D46D11E4A4265
S214007C101C461B7E4A419A4226D12968236899420F
S214007C2022D3636899421FD8114E0DF107033246DE
S214007C30FFF712FDC0B972686B689A4214D19DF8BE
S214007C400730DA1E53425341227E93420CD16369B9
S214007C5001336361D4E90323934205D22968A268FD
S214007C6042F8231001332361012002B070BD00BF2B
S214007C70683700202DE9F04F9B4689B09DF84830C4
S214007C809046514A0193136907465B450D46C0F07E
S214007C909580D94653680093B9F1000F7BD0FB6BF3
S214007CA001225B6905A90098984705A82CF012FAEE
S214007CB0454B1B68984240F0848005A82CF016FAC5
S214007CC00428064615D105A82CF017FA009B044692
S214007CD01E44019B002B3ED1804512D91C46A8EBC2
S214007CE00008384600992BF006FFA9EB040900901F
S214007CF0D2E7FB6B02225B69009806A9984706A8A4
S214007D00E2E7A0EB08045C4528BF5C46032C46442B
S214007D10ABEB040B1DD9FB6B294630465B69A2080A
S214007D20984724F0030304F0030A1E441D44DDF8BC
S214007D300480BAF1000FD4D0FB6B012206A93046AE
S214007D405B6998475246284606A912F0A1FA5544A0
S214007D50C7E7A246EBE7824600F0030302932B1820
S214007D6003930644039BA6EB0A00A3EB0A05029BBB
S214007D709A4514D1BAF1000FB3D0FB6B012206A9C5
S214007D805B6998475246284606A912F03DFC002833
S214007D90DDD04FF03609484609B0BDE8F08FFB6BE2
S214007DA0012206A95B6998470422284606A912F014
S214007DB02BFC0028EDD1AAF1040AD3E74FF06309A3
S214007DC0E9E74FF06F09E6E7943700202DE9F04128
S214007DD00F4616469846044688B060B390F834506E
S214007DE0FDB101212BF0BFFD00210E9BCDE9051151
S214007DF0CDE902379DF83C30CDF804808DF81C3074
S214007E00237C04968BB90D4901AA04F1080000F002
S214007E1055FFDDE90553E06B002E08BF1D462BF02D
S214007E203BFF284608B0BDE8F0812046044A01AB77
S214007E30FFF7BCFCEDE70546F3E700BF473C030051
S214007E40097C00007FB590F84260044601920DF16F
S214007E500B030A46304611492BF026FF012E054635
S214007E60E36B17D132465B6903A998479DF80B1060
S214007E70039B019A59B19BB243EA0243012228466A
S214007E800393E36B03A99B69984704B070BD62F344
S214007E900F03F3E701229B6901A9F5E79437002059
S214007EA02DE9F04F99B00E460D920A69416C0B937E
S214007EB01439D31DB3FBF1F3013302EBC302036B9A
S214007EC004469342C0F001820023DFF8049408932E
S214007ED0E36A48461946059300F074FFD6E903376F
S214007EE007930B9B022B4DD1CC2F40F0D7810D9BD7
S214007EF03BB1314620462BF02DFF656C14900120D7
S214007F0044E00120079B656C1B68149300F0010099
S214007F1000280CBF04230823782F0E9349D8059A0F
S214007F206B1E1340ED1A3B1D9D423CD2002F3DD0E8
S214007F30082D3ED80023042506934FF0040A336824
S214007F4006990B98C9F80030C9F810702CF0E8F8BC
S214007F504FEA9A030F93059B89F8140003930023B6
S214007F6009930C9304930A93616C039B4A1E1A4070
S214007F708B1A27B35544AB4223D8236B5B1A1344A2
S214007F8023632FE1782F656CB9D8F07D0D9B002B0D
S214007F90BCD0E36B01225B69706816A9984716A8E7
S214007FA02CF09CF8B4E700250695C6E7042506974E
S214007FB0C3E7012300254FF0080A0693BFE75345A1
S214007FC0DBD3A3EB0A029742039BB84628BF904632
S214007FD09742534428D90122D9F8101089F817205F
S214007FE08F4226D10399C9F80410049299F81720F5
S214007FF00AB399F818100398CA1C09EBC20250601D
S21400800004980131A2F80880907289F81810B8F127
S214008010000F07D00B9A022A40F08180099A72B1AD
S214008020012209929B46ABE0049A002A18BF03225D
S214008030DBE70222D9E7039AC9F80420E7E70C9A9F
S2140080404244032AEED9E26B1846956914A9012228
S2140080500993A847099B05460028E1D03D2D40F02E
S2140080601E8104F1080303932368059A606CA2EB53
S214008070030ABAFBF0FA00FB0A302CF0E9F8E16AD2
S214008080804620462BF037FDA26A824200F00F8120
S214008090626CD9F80830511E0B40216B2768891A8C
S2140080A00B442363089BE062DF1BB7FBF2F7BA457D
S2140080B040F0FA80059BB3EB080A12D0E36B4FEA58
S2140080C09A0241469B6998478346E36A059A534459
S2140080D0E362236B03989B1A434423632BF010FF41
S2140080E0DA462368616CE06B01FB07312CF025F85B
S2140080F020462BF043FC20462BF040FD2063BAF1CF
S214008100000F00F0D4803269616CD31D1439B3FBC4
S214008110F1F3013302EBC3029042A5D2BFE00D9A01
S214008120002A77D1B8F1030F4FEA98026ED9E16BB7
S21400813018468D6907991093A847109B0546C0B945
S21400814018F0030515D0079A28F0030B02EB0B0175
S2140081509B444FF0FF3215A815922A46109312F052
S21400816097F8E26B5846956915A90122A847054677
S214008170109B9B46079A42440792002D40F08B8046
S214008180049B16A80193069B009399F81420434677
S214008190316800F0CDFDE36B0F9A9B69039816A932
S2140081A09847039A051E089B18BF13460893434634
S2140081B05246204603992BF0CBFC236B08F10302B2
S2140081C0A3EB0A0322F003029B1AC9F808002363F4
S2140081D0002D7FF443AF0C9BA7EB080743440C939A
S2140081E0CDF80CB0204603992BF085FC00250390B3
S2140081F0002F7FF4B9AE364A3168936804F1080060
S214008200E36252680B9B00F00BFD49E09B46454637
S21400821007999EE79B4606F120021092F27D706851
S214008220A2B1002296F818C00A99D5B2AC4511D969
S214008230109D02F1010E35F832508D4228D90E9865
S21400824006EBC2020144D069084403E00E9A0A997C
S2140082500A441044E26B15A9556901221193A847F8
S214008260159A0A9B1392E26B0433956958460122CD
S21400827013A90A93A847119B054603EB0802A2EB35
S2140082800B02042A7FF679AF28B90BF1040BC5E779
S2140082907246491BC9E7CDF820B088E770252F46FF
S2140082A0384619B0BDE8F08F4FF0000A19E732697A
S2140082B0616CD31D1439B3FBF1F3013302EBC30237
S2140082C0236B9342BFF404AEE9E71C27E8E700BF40
S2140082D03C370020032A2DE9F34106460D46174693
S2140082E01C4606D1237A012B23D0012002B0BDE81C
S2140082F0F081DFF86080096842460DF10703FFF75A
S214008300ABF960600028EDD19DF80720237A032A98
S214008310E8D0D8F804106A689142E3D1012B2969A5
S214008320D4F80CC007D172690CEB0103934202D952
S2140083302074207CDAE708316144E1603B46012284
S21400834029463046FFF7ACFD60600028CAD0002002
S214008350CCE700BF683700202DE9F341089C032ACC
S2140083601746266806D1237A012B24D0012002B0B6
S214008370BDE8F081DFF89080304642460DF10703F5
S214008380FFF76AF960600028EDD12568D8F8040088
S214008390A96AD5F844C04840CCF100031840227AB8
S2140083A0E1D1012A09D1E268D8F810301344726985
S2140083B0934202D92074207CD9E72868EB6A1B1AFE
S2140083C0081AB3FBFCF3B0FBFCF083420BD1706CD5
S2140083D0F36A421E1340326B121A13442846336364
S2140083E02BF089FBE862D8F81020E36808321344C3
S2140083F0E36001223B4604492068FFF751FD6060B8
S2140084000028B0D00020B2E7683700202DE9F04100
S2140084100025604B0E46D3F8008004461D6018B950
S21400842021252846BDE8F08190F8347007B30A6825
S21400843003689A4240F0A3804A6843689A4240F034
S2140084409E808A6883689A4240F09980CA68C368AA
S2140084509A4240F094800A6943699A4240F08F80BD
S2140084608A69C36B9A4240F08A804B698361D8E779
S21400847068223946856B11F07BFDD6E90212336817
S21400848004F1080023607368A56363603369636161
S2140084907369A3612BF046FDB36904F14000E36302
S2140084A09B68984720B9676C17B16368B3FBF7F70A
S2140084B094F84330E761002BB2D00023656C236646
S2140084C0002D64D0002F62D02368B3FBF5F205FBC5
S2140084D01233002B55D16668B6FBF5F305FB136324
S2140084E0002B4ED120462BF015FAA3690433034423
S2140084F09E4248D340F634726369CC3B934244D8DC
S214008500B5F5805F43D3032120462BF02CFAD4E93F
S2140085100001E36B1B6898470546E36B0220DB68A7
S2140085209847CDB941462046FFF77AF964280546B4
S21400853004D141462046FFF773F90546666C5DB9DF
S214008540236A2046143E5E432BF0E4F9A369043305
S21400855003449E4238BF5A25002D0CBF012300233A
S21400856084F8343007D1D4E900010B4A136801338C
S21400857013602BF071FDE06B2BF08EFB51E75D2551
S2140085804FE759254DE75A254BE75F2549E75B2519
S21400859047E700BFCC300020C83000202DE9FF415F
S2140085A00C4616461F46054680B390F834307BB31B
S2140085B0B1F5801F2ED2DFF8608001212BF0D3F9B1
S2140085C02146424628460DF10F03FFF745F80446BC
S2140085D070B99DF80F30012B11D1D8F81030BB427E
S2140085E012D10246009031462846FFF743FB044668
S2140085F0E86B2BF051FB204604B0BDE8F081022B5F
S21400860014BF2D246024F3E76324F1E72124F2E766
S2140086101124F0E72924EEE7943700202DE9F043F3
S21400862085B00C4617461E460546DDF8308098B3E2
S21400863090F8343093B3B1F5801F31D2DFF86490F0
S21400864001212BF090F921464A4628460DF10F03EA
S214008650FFF702F8044688B99DF80F30012B14D1B5
S214008660D9F8102006EB08039A4213D3009043462D
S214008670324639462846FFF7FDFA0446E86B2BF0EB
S2140086800BFB204605B0BDE8F083022B14BF2D245B
S2140086906024F3E76324F1E72124F2E71124F0E7EE
S2140086A02924EEE79437002073B50C461646054697
S2140086B030B390F834302BB3B1F5801F24D20121AB
S2140086C02BF051F921462846104A0DF10703FEF714
S2140086D0C3FF044680B99DF80730032B0CD0022B4D
S2140086E00CD1284609492BF035FB3060E86B2BF09F
S2140086F0D3FA204602B070BD2D24F7E76124F5E7D3
S2140087002124F6E71124F4E72924F2E79437002021
S2140087102DE9F3411E4600230C46174605463360F6
S21400872050B390F834304BB3B1F5801F28D2DFF841
S214008730548001212BF017F92146424628460DF1B8
S2140087400703FEF789FF0446A0B99DF80730032B00
S21400875010D0022B03BF01233B600423D8F810304F
S21400876018BF38603360E86B2BF096FA204602B0EC
S214008770BDE8F0812D24F6E72124F7E71124F5E77C
S2140087802924F3E79437002073B50446056B2BF0D5
S214008790C1F8636E03449D422CBF0023012385422B
S2140087A094BF00252D1A207C84F85030656584F827
S2140087B05800A8B100230C4E1A46194620460096CB
S2140087C02BF08CFB002305461A46194620460096D9
S2140087D02BF08DFBE3682844984294BF0020C01A13
S2140087E0E06502B070BD00BFFFFF0F002DE9F34744
S2140087F01E4643690446B342884617469DF82890AD
S2140088004ED300258DF8075020462BF083F8D4F879
S21400881030A082450AD2236AB5EB430F06D2002267
S21400882020460DF10701FFF745F9B8B39DF807306C
S214008830012B05D1002220460DF10701FFF73AF97A
S214008840B9F1030F06D0314620462BF053F8256BBE
S214008850854227D3144D4FF0FF31284600F0B2FA78
S2140088604B46294600222046C5E90376C5F8008017
S214008870FFF716FB236E054663B12046FFF784FF1D
S21400888094F8503013B994F858301BB1236E04F1A5
S21400889050009847284602B0BDE8F0870135B3E798
S2140088A06225F7E71C25F5E7683700202DE9FF412C
S2140088B00F4690461E46054698B390F8343093B35C
S2140088C0B1F5801F31D21A4C02212BF04CF822460B
S2140088D0394628460DF10F03FEF7BEFE024678B174
S2140088E0012342460093394633462846FFF77EFF6B
S2140088F00446E86B2BF0D0F9204604B0BDE8F081C2
S2140089009DF80F30012BEBD12169B142E8D10093DD
S214008910414633462846FFF7ADF904460028DFD126
S214008920E7E72124E8E71124E6E72924E4E700BF87
S214008930943700202DE9F04790F8423086B0012B9E
S21400894005460391A1EB020740F0AA80FF2F03D84B
S2140089501E464FF0640807E00226012B14BF4FF0B6
S21400896032084FF06408013600244FF6FF79DFF82E
S21400897044A195F84230012B14BF322364239C4255
S21400898002D35FFA88F40DE005AB2246514628462E
S2140089902BF0BEF995F84230012B059B34D14B45A0
S2140089A02DD1E4B295F84230012B14BF3222642256
S2140089B0121BB24217D3012E39D10022012B059784
S2140089C08DF8132027D1082205A90DF113002BF0EE
S2140089D05BFC9DF81330059A42EA0322214628469E
S2140089E0FFF730FA40B10223324900932846CC23E1
S2140089F0096803AAFFF7FAFE06B0BDE8F087DBB207
S214008A0003B902340134B4E7591CCAD09BB2002B18
S214008A10F8D10134F6E7102205A90DF113002BF06A
S214008A2033FC9DF81330059A42EA0342D6E7039AD0
S214008A30012B059223D10823202205A90DF113004E
S214008A408DF813302BF020FC9DF8132012022146DF
S214008A502846FFF7F7F995F84230611C012BC9B29A
S214008A601AD10028BFD12846BDF81420FFF7EAF92E
S214008A700028B8D10234BDF81620E1B2AFE71023C3
S214008A80202205A90DF113008DF813302BF0FCFB06
S214008A909DF813201204DAE70028A4D1059A9EE771
S214008AA0B7F5803F4FF00106BFF457AF4FF03208DE
S214008AB05AE700BF9437002070B586B00E460546CC
S214008AC00392A0B390F834309BB3B1F5801F32D236
S214008AD002212AF048FF31462846184A0DF11703AE
S214008AE0FEF7BAFD044618B99DF81730032B0ED1D1
S214008AF00223314600932846CC2303AAFFF776FECE
S214008B000446E86B2BF0C8F8204606B070BD022B72
S214008B100BD10A4928462BF01DF9039902468142DB
S214008B20EFD02846FFF706FFEAE76124E9E72124AD
S214008B30EAE71124E8E72924E6E700BF9437002097
S214008B40F7B50C461646054668B390F8343063B35E
S214008B50B1F5801F2BD202212AF005FF21462846B8
S214008B60144A0DF10703FEF777FDC0B99DF80730EC
S214008B70032B14D0022B14D10E4928462BF0EAF80A
S214008B80471C024639462846FFF7D4FE044606B17F
S214008B903760E86B2BF080F8204603B0F0BD2D243C
S214008BA0F7E76124F5E72124F6E71124F4E7292402
S214008BB0F2E700BF9437002030B50C46054685B076
S214008BC028B390F8343023B3B1F5801F23D20221A6
S214008BD02AF0C9FE0DF10F03214628460F4AFEF77C
S214008BE03BFD034688B99DF80F20032A0DD00322CB
S214008BF02146009202462846FFF7F8FD0446E86B39
S214008C002BF04AF8204605B030BD2D24F7E7212486
S214008C10F8E71124F6E72924F4E700BF943700208C
S214008C202DE9F043466886B3056898464FF0000C79
S214008C30A946AE4655F83C400CF1010CC4F31307A8
S214008C40013401D0B94217D0B4450EF1080EF1D167
S214008C502F46002403E0B44207F1080712D055F867
S214008C60343001340133F6D1C1F3130141EA08511F
S214008C70C7E90012BDE8F08341EA0851CEE90012C8
S214008C80BDE8F083B8F1030F03D101230372BDE8FA
S214008C90F083002303E0B34209F10809F5D055F844
S214008CA033400133C4F30754032CF4D1C1F3130348
S214008CB043EA0853C9E90032BDE8F0832DE9F041E4
S214008CC00646406882B0B8B10F4690460024336826
S214008CD053F8345003EBC403C5F30752C5F313012E
S214008CE0013506D05B683046CDF80080B84718B12D
S214008CF0706801348442EAD302B0BDE8F08100BF58
S214008D00024B1968024B1868FFF780BB18630020F7
S214008D103863002008B534F0A6FF014B186008BD84
S214008D20C0370020014B186834F098BFC0370020C9
S214008D3073B504462248012A00EAC1119DF818506E
S214008D4023F07C4007D9961E012E28D9073303F05E
S214008D507F03194308E09DF81C300A43DB0603F046
S214008D60C053134343F060410023C4E900108DF85C
S214008D700730B5B1202221460DF107002BF084FA0A
S214008D801A220DF10700211D2BF07EFA08206368D9
S214008D909DF8072043EA8263636002B070BD11430A
S214008DA0E2E71B220DF1070021462BF06DFA23683F
S214008DB09DF80720042043EAC2632360EDE700BF66
S214008DC080FFFF0738B5094B0D461A680021044698
S214008DD011F0CEF800234FF0FF322383C4E90025BC
S214008DE02361A260E382A37638BD00BFA47C0400A2
S214008DF00138C0B205289ABF014B185C01207047A5
S214008E00A97C04002DE9F0410746154600240E46CD
S214008E10596888B0490A012922464FEA510104F1EF
S214008E200104F8D8DC78997824031B88C90201F479
S214008E30006104F480540C43C3F30A035203234432
S214008E4092B24FF000089C18274B6FEA0444039335
S214008E5025F07843ED4302A90DF107001B2202938B
S214008E608DF807802BF010FA9DF80720029B02A9C8
S214008E7043EAC2630DF107001B2225F078450493F0
S214008E8002958DF807802BF0FFF99DF80720029BCE
S214008E906FEA144443EAC26305934FF0FF33079426
S214008EA0069307A9BB69012206F110009847BB6923
S214008EB005A90446012206F108009847BB6940450B
S214008EC018BF044604A90122301D984701224045D8
S214008ED018BF0446BB69304603A99847404508BFFB
S214008EE0204608B0BDE8F08101009AB238B5104BB4
S214008EF00546D3F800310C4603F00303022B0BD0D3
S214008F00032B0DD0012B0FD132F086FF032305B1C2
S214008F10286004B1236038BD32F0C8FF0723F6E7A7
S214008F2034F0B4FE0623F2E701230020EFE700BF8B
S214008F300080005038B5134B0546D3F820010C4688
S214008F4000F0070004281AD8DFE800F003090D1126
S214008F501500012305B1286004B1236038BD32F046
S214008F6021FF0423F6E732F057FF0323F2E732F03F
S214008F7059FF0523EEE732F04BFF0223EAE7002312
S214008F801846E7E70080005038B5104B0546D3F882
S214008F9040310C4603F00303022B0BD0032B0DD0FD
S214008FA0012B0FD134F074FE082305B1286004B1FC
S214008FB0236038BD32F07AFF0723F6E734F06BFE05
S214008FC00923F2E701230020EFE700BF00800050EE
S214008FD038B5104B0546D3F860310C4603F0030352
S214008FE0022B0BD0032B0DD0012B0FD134F050FEEB
S214008FF0082305B1286004B1236038BD32F056FF5F
S2140090000723F6E734F047FE0923F2E701230020A2
S214009010EFE700BF0080005041F6713210B5104CEB
S214009020104BA04294BF00240124D969DA639A68E1
S21400903001F4803122F4401242EA04529A600A4A4D
S21400904090420A4AD2F818028CBF40F0020020F084
S2140090500200C2F8180209B10022DA6310BD00BF90
S214009060005A62020000035080F0FA0200C0075067
S2140090702E4B98424AD022D82D4B984240D014D836
S2140090802C4B984239D00AD82B4B984232D02B4BD7
S21400909098422FD02A4B98422CD000207047294B5C
S2140090A09842FAD1284B186F7047284B98422AD01E
S2140090B0274B9842F1D1244BD3F880007047254BBC
S2140090C098422BD009D8244B984223D0234B984261
S2140090D0E3D11D4BD3F88C007047214B984221D02A
S2140090E003F5740303F510539842D6D1164BD3F804
S2140090F098007047144B986D7047134B586E704726
S214009100114B586F7047104B986F70470E4BD3F843
S214009110840070470C4BD3F8880070470A4BD3F88E
S21400912090007047084BD3F8940070470048E80159
S2140091300024F400C0CF6A0080841E0000093D00B1
S21400914040420F00405DC6000080E00FC0EA2101EB
S21400915080BA8C01007E560380D54302006CDC0288
S2140091600090D00337B50C460021114B0191D3F87F
S2140091708031054603F00303022B0ED0032B11D0DB
S214009180012B03D101A8FFF7D5FE0D210DB1019BE0
S2140091902B6004B1216003B030BD32F043FE0521E0
S2140091A00190F3E732F034FE02210190EEE700BFB3
S2140091B00080005038B5104B0546D3F840320C46B8
S2140091C003F00303022B0BD0032B0DD0012B0FD182
S2140091D034F05EFD082305B1286004B1236038BD75
S2140091E032F064FE0723F6E734F055FD0923F2E774
S2140091F000231846EFE700BF0080005038B5144B38
S2140092000546D3F800020C4600F0070004281BD8D9
S214009210DFE800F003090D111500012305B12860F1
S21400922004B1236038BD34F033FD0823F6E732F08E
S2140092303DFE0723F2E734F02EFD0923EEE732F079
S214009240D1FD0C23800AE9E700231846E6E700BFB5
S2140092500080005038B5144B0546D3F808020C467B
S21400926000F0070004281BD8DFE800F003090D1102
S2140092701500012305B1286004B1236038BD34F021
S21400928007FD0823F6E732F011FE0723F2E734F075
S21400929002FD0923EEE732F0A5FD0C23800AE9E77C
S2140092A000231846E6E700BF00800050032814D0CD
S2140092B005D8012805D0022809D0002005E00F288F
S2140092C0FBD1084B186FC0F3013001307047054BD7
S2140092D0D3F89000C0F30460F7E7024B186FC0F3B2
S2140092E08020F2E7008000501FB500230193252858
S2140092F017D8DFE800F0131A1D272C363B51565BB3
S21400930060656A78161A401616561A272C27361ADB
S2140093105127783B3B3B3B2727275B6032F048FDD5
S2140093200190019805B05DF804FB32F05BFDF7E7AD
S21400933032F03EFD02460220FFF7B8FFB2FBF0F225
S2140093400192EEE732F04EFD02460320F4E732F0DB
S21400935049FD02460320FFF7A9FFB2FBF0F25208D0
S214009360EEE7002101A8FFF7FDFEDAE7002101A8DD
S214009370FFF7E0FDD5E702934FF0E0231B695B079C
S21400938005D532F02FFD0290029B0193C9E703A991
S21400939002A8FFF7F9FDF7E7002101A8FFF7F4FDA3
S2140093A0BFE7002101A8FFF713FEBAE7002101A8D6
S2140093B0FFF724FFB5E7002101A8FFF74BFFB0E752
S2140093C0002101A8FFF792FDABE7094BD3F88030E8
S2140093D003F00303022BA8D0032B01D000209FE745
S2140093E032F020FD9CE7002101A8FFF7E3FE98E796
S2140093F00080005008B50120FFF776FFBDE8084062
S2140094000349884294BF01210221032000F002B8DC
S21400941080F0FA02032810B50C4627D004D801289D
S21400942004D0022817D010BD0F28FCD12AF04AFF1E
S2140094302AF050FF124A013C136F23F4405343EACC
S2140094400433136732F0CEFC0021FFF7E5FDBDE8DC
S2140094501040FFF7CFBF0A4A4C1ED2F8903023F0D8
S214009460F85343EA0463C2F89030DCE7044A4C1E23
S214009470136F23F4806343EA84231367D3E700BFA4
S214009480008000501FB500230193252821D8DFE86F
S21400949000F013202020202A2F454A4F54595E7191
S2140094A020203420204A202020202A204520712FEA
S2140094B02F2F2F2020204F54314B1B6F03F0070314
S2140094C0013B032B05D8DFE803F00C02080A04234F
S2140094D00193019805B05DF804FB0323F8E7062323
S2140094E0F6E70223F4E7002001A9FFF73BFEF0E7CA
S2140094F0002001A9FFF71EFDEBE702934FF0E023E3
S2140095001B695B0705D532F06DFC0B230393039BA9
S214009510DEE703A902A8FFF737FDF8E7002001A958
S214009520FFF732FDD5E7002001A9FFF751FDD0E790
S214009530002001A9FFF762FECBE7002001A9FFF794
S21400954089FEC6E7002001A9FFF7D0FCC1E70C4B57
S214009550D3F8803003F00303022B03D0032B05D08F
S2140095600023B5E732F03EFC0B23B1E732F05AFC9D
S2140095700523ADE7002001A9FFF71CFEA9E700BF01
S2140095800080005008B50320FFF790FE034B1870CC
S2140095902AF098FEBDE808402AF09CBE005900203C
S2140095A010B5044632F01EFC0021FFF735FD1CB155
S2140095B0BDE81040FFF71EBF034B0320BDE8104078
S2140095C01978FFF727BF00BF0059002038B50546B9
S2140095D0FFF74EFD204B04465A68012A04D11F4966
S2140095E04A609A699207FCD10020FFF74BFF0428D7
S2140095F003D12AF067FE2AF06DFE194A24F0407364
S21400960095421FD0174A95421FD0174AD16811F0CD
S214009610060FFBD19068936091684B4013F4F81FD7
S21400962016D12846FDF766FD0020FFF72BFF04281D
S21400963010D132F0D7FB0021FFF7EEFCBDE8384032
S214009640FFF7D8BE43F00073DFE743F08073DCE734
S2140096509060E9E738BD00BF00C0015000E001504F
S21400966040420F0080841E000000015070B5044682
S2140096700020FFF707FF03287CD045F60E030221E3
S214009680414AC2F88030414B9962012103F580536C
S2140096909962936DD903FCD4D4E900131B0543EA01
S2140096A00163E17B94F823500B43217B43EA01439B
S2140096B0617B43EA0133A17B43EA8113136191691D
S2140096C0D4E904031B0643EA806301F000410B4320
S2140096D0A17EE07E0B43217E43EA0143617E43EA9E
S2140096E001239361E169136A002923F00D0343EA1D
S2140096F0010314BF0121002143EA800343EAC103AA
S214009700136294F8203094F82200916A4FEA4313CB
S21400971031D194F8216021F0330143EA06130B435C
S21400972043F0010393621A49174A936D31EA030323
S214009730FBD10221154B9962936D5B00FCD4136933
S214009740A16823F4700343EA015313614FF000420B
S2140097500E4B9A6118B9022203F580539A6215B926
S21400976001220C4B9A6294F824301BB1064B0A4A2D
S214009770C3F8802070BD21F0330129430B4343EA30
S21400978040039362EFE700BF00C0005000D00050D7
S2140097900300014000E00050F1A7FFFF014B93F9E2
S2140097A00000704701590020014B1880704700BF29
S2140097B0606800200C4A10B51369044643F00403A1
S2140097C0136132F07FFE2AF089FD084B084AC3F881
S2140097D0202430BF2AF083FD01F0E2FE1CB9BDE86C
S2140097E0104032F0FFBA10BD00ED00E000E003507C
S2140097F00000FFFF034A0179D36E23F030030B43CA
S214009800D36670470040005041F67132034BDA636E
S214009810012203F50053DA60704700BF00000350D2
S21400982041F671320121044BDA6303F50052D16030
S2140098300022DA63704700BF00000350044B18682C
S214009840421C02BF034AD2F894001860704700BF5B
S2140098503C63002000400050CB784A7810B55B018E
S2140098600C7843EA82030A79234343EA02130C2264
S214009870424302F1B0421363012C02BF8A78024BC6
S21400988043F8202010BD00BFD080035008B54FF02D
S214009890B0435A6802B960B15B680BB12AF028FD84
S2140098A04FF0B04130B10120074B58602AF020FD40
S2140098B0C86008BD2AF01CFD0223CB602AF018FD04
